:100000000C9446000C9465000C9465000C946500FB
:100010000C9465000C9465000C9465000C946500CC
:100020000C9465000C9465000C9465000C946500BC
:100030000C9465000C9410010C9465000C94650000
:100040000C9465000C9465000C9465000C9465009C
:100050000C9465000C9465000C9465000C9465008C
:100060000C9465000C9465000C9465000C9465007C
:100070000C9465000C9465000C9465000C9465006C
:100080000C9465000C9465000C94650011241FBE4F
:10009000CFEFD0E4DEBFCDBF11E0A0E0B1E0E0E6FD
:1000A000F4E000E00BBF02C007900D92AA31B10747
:1000B000D9F711E0AAE1B1E001C01D92A332B10766
:1000C000E1F70E9410020C942E020C94000040E014
:1000D00050E00CC000002F5F3F4F02C020E030E036
:1000E000273063E03607B4F34F5F5F4F4817590777
:1000F000ACF308955E9888B95F9A00005F9882E03B
:1001000090E00E946700089581E00E947A000895BF
:10011000813120F481580E947A00089581550E940F
:100120007A00089584E690E00E94670088E30E94C8
:100130007A0086E00E947A008FE00E947A0081E0D7
:100140000E947A008AE090E00E94670008955E9A1B
:1001500088B95F9A00005F9881E090E00E94670094
:100160000895EF92FF920F931F93CF93DF93182F71
:10017000EB010E9484000EC001E0010F812F0E945C
:1001800088007E018FEFE81AF80A88810E94A70094
:10019000102FE70188818111EFCFDF91CF911F915F
:1001A0000F91FF90EF900895CF93C82F8A3019F4E4
:1001B0008DE00E94D4009091C00095FFFCCFC093C9
:1001C000C60080E090E0CF9108958BE0809381009D
:1001D0008DE790E0909389008093880082E080937F
:1001E0006F00109285001092840080910001909120
:1001F0000101A0910201B091030180931A01909333
:100200001B01A0931C01B0931D018FB780688FBFA5
:10021000089510928100089581E080931E01089551
:100220001F920F920FB60F9211240BB60F922F93BD
:100230003F934F935F936F937F938F939F93AF936E
:10024000BF93EF93FF9380911A0190911B01A091AE
:100250001C01B0911D010197A109B10980931A01F8
:1002600090931B01A0931C01B0931D01892B8A2B35
:100270008B2B91F40E940C0180910001909101015F
:10028000A0910201B091030180931A0190931B0188
:10029000A0931C01B0931D01FF91EF91BF91AF910D
:1002A0009F918F917F916F915F914F913F912F918E
:1002B0000F900BBE0F900FBE0F901F90189560937C
:1002C00000017093010180930201909303016093F8
:1002D0001A0170931B0180931C0190931D010895D6
:1002E000CF93DF93EC0180B180958170C230D1054E
:1002F00019F134F4209771F0C130D105C1F026C056
:10030000C330D10521F0C430D105D9F01FC0C4E0FD
:10031000D0E01EC081E08093220110922101109252
:10032000200185E080931F01C1E0D0E011C0882347
:1003300079F0C2E0D0E00CC0882351F0C3E0D0E0F7
:1003400007C0882329F0C2E0D0E002C0C0E0D0E0BE
:10035000C230D10571F0C330D105B1F1C130D10542
:1003600009F057C00E94920085E390E00E94A70028
:1003700050C080912101823068F49091200190FD5D
:1003800009C090912201990F909322018F5F809371
:1003900021010EC0823060F49091200190FF08C0CE
:1003A000909122019695909322018F5F8093210175
:1003B00080912101823069F5809120018F5F8093C7
:1003C00020011092210125C080912201823031F458
:1003D00080911F018F5F80931F0107C080911F01D3
:1003E000882319F0815080931F0180911F0189306B
:1003F00048F40E94920080911F0190E0C0960E94F4
:10040000A70007C00E94920062E171E081E00E94B3
:10041000B1008091220185B9CE01DF91CF9108957D
:100420008FEF87B918B88AB91BB811B882B984B9E7
:1004300015B86CE271E080E090E00E945F010E94DC
:10044000E50020E030E0C9010E9470019C0190911C
:100450001E019923E1F310921E01F5CFF894FFCF0E
:10046000010000000000000200000000D4000000B5
:0A0470000000766963746F72790072
:00000001FF
